:020000040000FA
:040000004BEF00F0D2
:100008005982FACF20F0FBCF21F0E9CF22F0EACFD6
:1000180023F0E1CF24F0E2CF25F0D9CF26F0DACFD4
:1000280027F0F3CF28F0F4CF29F0F6CF2AF0F7CF56
:100038002BF0F8CF2CF0F5CF2DF0F2BAF2A403D0C4
:100048004CEC08F006D0F2BCA3A403D0A4B4E1ECB5
:1000580008F02DC0F5FF2CC0F8FF2BC0F7FF2AC011
:10006800F6FF29C0F4FF28C0F3FF27C0DAFF26C037
:10007800D9FF25C0E2FF24C0E1FF23C0EAFF22C068
:10008800E9FF21C0FBFF20C0FAFF599211007AEF67
:1000980012F0000E546E8C68070E8D6E030E946E6F
:1000A8009368000E0001F96FF951D3EC0EF0020EBF
:1000B800526E5250D8A4FDD789A802D0010E01D0A3
:1000C800000EFF0A01012E6F2E3B89502E19EF0BEF
:1000D8002E19896E000E0001FA6FF9510A0DF350BE
:1000E800FA25F86FFA51040DF3CF2EF1F4CF2FF162
:1000F800F951280D630E0101306F050E316FF35071
:100108003027F45031232E513025D96E2F5131210B
:10011800DA6E0001FA51040DF3CF32F1F4CF33F166
:10012800F951280D630E0101346F050E356F030E6A
:100138003427000E3523F3503427F4503523325139
:100148003425E16E33513521E26EDFCFE7FF000140
:10015800FA51040DF3CF2EF1F4CF2FF1F951280DF8
:10016800630E0101306F050E316FF3503027F450E4
:1001780031232E513025D96E2F513121DA6E0001ED
:10018800FA5118EC0EF0DF6E0001FA51040DF3CFAE
:100198002EF1F4CF2FF1F951280D630E0101306FC4
:1001A800050E316FF3503027F45031232E5130258E
:1001B800D96E2F513121DA6E0001FA51040DF3CFB7
:1001C80033F1F4CF34F1F951280D630E0101356F85
:1001D800050E366F030E3527000E3623F3503527EC
:1001E800F450362333513525E16E34513621E26E11
:1001F800DE50E618D8A463D00001FA51040DF3CFFD
:100208002EF1F4CF2FF1F951280D630E0101306F53
:10021800050E316F010E3027000E3123F3503027C1
:10022800F45031232E513025D96E2F513121DA6EF9
:10023800010EDB5004E1040EDE5CD8A020D00001E2
:10024800FA51040DF3CF2EF1F4CF2FF1F951280D07
:10025800630E0101306F050E316F010E3027000E5D
:100268003123F3503027F45031232E513025D96EE5
:100278002F513121DA6E030EDE6E000EDD6E0001A5
:10028800FA51040DF3CF2EF1F4CF2FF1F951280DC7
:10029800630E0101306F050E316F010E3027000E1D
:1002A8003123F3503027F45031232E513025D96EA5
:1002B8002F513121DA6EDE2A000EDD2220D0000116
:1002C800FA51040DF3CF2EF1F4CF2FF1F951280D87
:1002D800630E0101306F050E316F010E3027000EDD
:1002E8003123F3503027F45031232E513025D96E65
:1002F8002F513121DA6E000EDE6E000EDD6E000128
:10030800FA51040DF3CF2EF1F4CF2FF1F951280D46
:10031800630E0101306F050E316FF3503027F45032
:1003280031232E513025D96E2F513121DA6EDF500D
:10033800D8A43FD00001FA51040DF3CF2EF1F4CF29
:100348002FF1F951280D630E0101306F050E316F41
:10035800010E3027000E3123F3503027F45031239B
:100368002E513025D96E2F513121DA6E030EDE1849
:10037800DE10D8B437A609D0000E0001F46F080EBD
:10038800F36F010EF56F84EC13F0040E546011D076
:100398008F0E0001F825F66EF76A7E0EF7223C0EE6
:1003A8005424D96EDA6A000EDA220800F5CFDFFF8E
:1003B800542A0001FA2B090EFA658FD689A802D0B3
:1003C800010E01D0000EFF0A01012E6F2E3B89504D
:1003D8002E19EF0B2E19896EFF0E95EC14F0020EF4
:1003E800526E5250D8A4FDD70001F92B0A0EF965B8
:1003F8005BD61200200E516001D0120060B21200CC
:10040800000E0101306F00018F519011D8B406D051
:100418008FC0D9FF90C0DAFFDFBE50D1000EF36F56
:10042800050EF46F000EF66F000EF56F000EF86FF4
:10043800080EF76F53EC05F05450D8B4FFD0010EF6
:100448000101306F010E0001946F000E0501006F6D
:10045800010E5464A6D054C031F180D03B0E312532
:10046800D96EDA6A000EDA22000EDF6E050100830B
:1004780073D03B0E3125D96EDA6A000EDA22000EEF
:10048800DF6E0501008B68D03B0E3125D96EDA6A24
:10049800000EDA22000EDF6E050100815DD03B0EF2
:1004A8003125D96EDA6A000EDA22000EDF6E0501F8
:1004B800008952D03B0E3125D96EDA6A000EDA2255
:1004C800000EDF6E0501008547D03B0E3125D96E41
:1004D800DA6A000EDA22000EDF6E0501008DE7D71A
:1004E8003B0E3125D96EDA6A000EDA22000EDF6E75
:1004F8000501008731D03B0E3125D96EDA6A000E2E
:10050800DA22000EDF6E0501008F26D03B0E312562
:10051800D96EDA6A000EDA22DF502E6F2F6B2F5158
:10052800000AD8A419D02E51E00AD8B4ADD7010AD0
:10053800D8B494D7030AD8B4BDD7010AD8B4D0D751
:10054800070AD8B4ACD7010AD8B493D7030AD8B4E9
:10055800BCD7010AD8B4CFD7010131070101315105
:10056800D8A4D4D73CC002F53DC003F5030E5464AB
:1005780005D03EC004F53FC005F50DD0020E546409
:1005880005D03EC004F5000E050104D0000E05019B
:10059800046F000E056F000E0501066F000E076F51
:1005A8004AD03CC002F5000E036F000E046F000E27
:1005B800056F000E066F000E076F1CD0050100873F
:1005C8003AD00501008F37D0000E0501026F008375
:1005D80032D00501008B2FD0050100812CD00501F8
:1005E80007D0000E0501026F008525D00501008D9A
:1005F800008921D03C5001012E6F2F6B2F51000A2A
:10060800D8A419D02E51E00AD8B4E6D7010AD8B434
:10061800DBD7030AD8B4E5D7010AD8B4CFD7070A7D
:10062800D8B4DDD7010AD8B4D4D7030AD8B4DED7F2
:10063800010AD8B4C6D73CC020F11DD000019405EA
:10064800D8A403D0010E0101306F000E0001D36F52
:10065800000E946F000E956F000E0501026F000EDC
:10066800036F000E046F000E056F000E066F000E7C
:10067800076F000E006F0001CC51CD11D8A403D034
:10068800010E0101306F01013005D8A417D037A63B
:1006980010D0010E0001F36F000EF46F050EF56F18
:1006A800080EF66F010E8BEC0AF0F3C08FF0F4C061
:1006B80090F0C30E0001CD6F500ECC6F0001915128
:1006C8009211D8B406D091C0D9FF92C0DAFFDFBE2C
:1006D800120046EC13F0000E0001F36F400EF46FA9
:1006E800050EF56F010EF66F010E8BEC0AF0F3C0E4
:1006F80091F0F4C092F0120004013205D8A410D091
:1007080030511F0B0009D8A40BD00001998F030E9C
:1007180004013119D8A402D0010E01D0000E4E6E8A
:100728003251D8A4120030511F0B020AD8A412006B
:1007380034510F0B0009D8B4120034510F0B156E49
:10074800030E15601200200E5118D8A412000001E3
:10075800998F040134BF18D034510F0B156E155002
:10076800020DA20EF324D96E000EF420DA6EDECF4D
:100778001AF0DDCF1BF034510F0B156E166AB80E48
:100788001524D96E000E17D034510F0B156E155065
:10079800020D9C0EF324D96E000EF420DA6EDECF23
:1007A8001AF0DDCF1BF034510F0B156E166ABB0E15
:1007B8001524D96E000E1620DA6EDF50196E19B0A6
:1007C80006D0FB0E1A141A6EFF0E1B1404D0040E6A
:1007D8001A101A6E1B501B6E34BF0AD034510F0BFF
:1007E800156E1550020DA20EF324D96E000E09D015
:1007F80034510F0B156E1550020D9C0EF324D96E53
:10080800000EF420DA6E1AC0DEFF1BC0DDFF030EF7
:100818003119D8A42AD01AC0D9FF1BC0DAFFDFAE1D
:1008280017D034BF09D034510F0B156E166AB80EA5
:100838001524D96E000E08D034510F0B156E166AA8
:10084800BB0E1524D96E000E1620DA6E0001DF8269
:100858001AC0D9FF1BC0DAFF000EDB841AC0D9FF0B
:100868001BC0DAFF000EDB8E1200040E1A181A6E77
:100878001B501B6E1AC0D9FF1BC0DAFFDFAE1BD09E
:100888001AC0D9FF1BC0DAFF7F0EDF161AC0D9FFC6
:100898001BC0DAFF000EDB8C000E0E6E050E0D6E0F
:1008A8001AC00FF01BC010F0000E126E020E116E6F
:1008B8009AEC11F006D01AC0D9FF1BC0DAFF000E5F
:1008C800DB8C040E1A181A6E1B501B6E19B206D058
:1008D8001AC0D9FF1BC0DAFFDFAE2DD0040134BF28
:1008E80009D034510F0B156E166AB80E1524D96E3F
:1008F800000E08D034510F0B156E166ABB0E152466
:10090800D96E000E1620DA6E0001DF921AC0D9FFE8
:100918001BC0DAFF3B0EDF16000E0E6E050E0D6EC5
:100928001AC00FF01BC010F0000E126E020E116EEE
:100938009AEC11F006D01AC0D9FF1BC0DAFF3B0EA3
:10094800DF16040134510F0B156E166A6A0E152452
:10095800176E0F0E1620186E17C0D9FF18C0DAFFD1
:10096800FE0EDF161200800E04013019D8A4120002
:10097800C00E0001996F80D0DD0E0001966F7F0ECA
:10098800976F000E9B6F120E9A6F12003251D8A407
:1009980040D03251020D110EF324F66E7F0EF42072
:1009A800F76E0900F5CF96F00A00F5CF97F0020E22
:1009B80000019625016E000E9721026E01C0F6FF18
:1009C80002C0F7FFF86A070EF76403D00800F55075
:1009D80005D0F6CFE9FFF7CFEAFFEF5000019A6F95
:1009E800030E9625016E000E9721026E01C0F6FFD8
:1009F80002C0F7FFF86A070EF76403D00800F55045
:100A080005D0F6CFE9FFF7CFEAFFEF5000019B6F63
:100A18001200000E0001996F1200060E326124D0F8
:100A28003251020DFD0EF324F66E7E0EF420F76EA1
:100A38000900F5CF96F00A00F5CF97F096C0F6FFBB
:100A480097C0F7FFF86A070EF76403D00800F5505F
:100A580005D0F6CFE9FFF7CFEAFFEF50016E01505E
:100A680000019A6F9B6B1200000E0001996F120033
:100A7800000E0001996F120004013351016E026AE1
:100A88000250000AD8A4F4D70150010AD8B474D788
:100A9800030AD8B47BD7010AD8B4BFD7E9D7F3C0C3
:100AA800FDF0F4C0FEF00001F751F811D8B41200BF
:100AB800FDC0D9FFFEC0DAFFF5C0DFFFF751FD2505
:100AC800F96FF851FE21FA6FFF0EF925D96EFF0E66
:100AD800FA21DA6EF5C0DFFFF85104E1030EF75D85
:100AE800D8A0120020EE01F0FD51D926FE51DA22DD
:100AF800F5C0DFFF20EE02F0FD51D926FE51DA22C3
:100B0800F5C0DFFFF751FD25F96FF851FE21FA6FA7
:100B1800FE0EF925D96EFF0EFA21DA6EF5C0DFFF59
:100B2800F751FD25F96FF851FE21FA6FFD0EF925F1
:100B3800D96EFF0EFA21DA6EF5C0DFFFF85104E135
:100B4800070EF75DD8A0120020EE03F0FD51D9265C
:100B5800FE51DA22F5C0DFFFF751FD25F96FF85194
:100B6800FE21FA6FFC0EF925D96EFF0EFA21DA6E16
:100B7800F5C0DFFFF85104E1090EF75DD8A01200B7
:100B8800FDC0F9F0FEC0FAF0F91FFA1FF94BFA2B75
:100B9800030EF915FB6FFC6BFB51FD27FC51FE237F
:100BA800FB51F75FFC51F85BFC0EF717FF0EF817C7
:100BB8000BD0FDC0D9FFFEC0DAFFF5C0DFFFF70795
:100BC800D8A0F807FD4BFE2BF751F811D8B4120046
:100BD800F0D701C00BF002C00CF005500610D8B4D5
:100BE80012000BC0D9FF0CC0DAFF03C0DFFF0550AD
:100BF8000B24076E06500C20086EFF0E0724D96ED2
:100C0800FF0E0820DA6E03C0DFFF065004E1030E72
:100C1800055CD8A0120020EE01F00B50D9260C502C
:100C2800DA2203C0DFFF20EE02F00B50D9260C5069
:100C3800DA2203C0DFFF05500B24076E06500C2094
:100C4800086EFE0E0724D96EFF0E0820DA6E03C068
:100C5800DFFF05500B24076E06500C20086EFD0EB2
:100C68000724D96EFF0E0820DA6E03C0DFFF065096
:100C780004E1070E055CD8A0120020EE03F00B502B
:100C8800D9260C50DA2203C0DFFF05500B24076E6B
:100C980006500C20086EFC0E0724D96EFF0E0820A3
:100CA800DA6E03C0DFFF065004E1090E055CD8A028
:100CB80012000BC007F00CC008F0071E081E074AF8
:100CC800082A030E0714096E0A6A09500B260A50EF
:100CD8000C220950055E0A50065AFC0E0516FF0E36
:100CE80006160BD00BC0D9FF0CC0DAFF03C0DFFF1C
:100CF8000506D8A006060B4A0C2A05500610D8B4DB
:100D08001200F0D720EE01F04450D9264550DA22DF
:100D1800DF50026E02500001835D000E8459D8A096
:100D280083C002F00250835F000E845B000E016EE8
:100D38000FD0380E0124D96EDA6A040EDA227FC089
:100D4800E1FF80C0E2FFDFCFE7FF7F4B802B012A66
:100D58000250015CD8A0EDD783518411D8B432D0A9
:100D680020EE01F04250D9264350DA22080EDF6EF9
:100D780020EE02F04250D9264350DA22380EDE6EB9
:100D8800040EDD6E44C0D9FF45C0DAFFDFBC0DD0CC
:100D980042C0D9FF43C0DAFF480EDF6E42C0D9FF18
:100DA80043C0DAFF000EDB8E120042C0D9FF43C0F9
:100DB800DAFF080EDF6E42C0D9FF43C0DAFF000E2B
:100DC800DB8E120020EE01F04250D9264350DA2281
:100DD800080EDF6E20EE02F04250D9264350DA2288
:100DE800300EDE6E040EDD6E42C0D9FF43C0DAFF5E
:100DF800040EDF6E42C0D9FF43C0DAFF000EDB8E5F
:100E080085518611D8B40ED020EE85F001D80AD0CD
:100E18000500FA6EDE50FD6EDE50FE6EF850FF6E75
:100E2800FA5012000001829F4A50D8A41200B6EC72
:100E38000DF01200A394000E676E000E656E000E92
:100E48006A6E6B0E0001F36F0F0EF46F000EF66FF3
:100E5800000EF56F000EF86F020EF76F53EC05F0F9
:100E6800160E626E9F0E666E7B0E646E000E00019B
:100E7800FF6FFF51040D000EF324D96E040EF42009
:100E8800DA6EDE6ADE6ADE6ADD6AFF2B0B0EFF654C
:100E9800F0D7608C000E636E6098609C6596000EBB
:100EA800996F000E826F000E846F000E836F65B617
:100EB800F5D7010E496E010E486E000E476E000E02
:100EC800466E000ED26F000EFF6FFF51020D9C0E92
:100ED800F324D96E000EF420DA6E000EDE6E000EDA
:100EE800DD6EFF51020DA20EF324D96E000EF42020
:100EF800DA6E000EDE6E000EDD6EBB0EFF25D96EBB
:100F0800DA6A000EDA22000EDF6EB80EFF25D96EFF
:100F1800DA6A000EDA22000EDF6EFF2B020EFF6582
:100F2800D4D7080E9C6F040E9D6F160E6A6E040EC1
:100F38000401036F300E026F080E016F040E006F7C
:100F4800008F000E586E000E0001A86F000EA96FEA
:100F5800000EAA6F000EAB6F000ED16F000E516E1F
:100F68001200A394000E676E000E656E000E6A6E86
:100F78006B0E016E0F0E026E000E046E000E036EF5
:100F8800000E066E020E056EEDEC05F0160E626E92
:100F98009F0E666E7B0E646E000E0D6E0D50040D76
:100FA800000EF324D96E040EF420DA6EDE6ADE6ACF
:100FB800DE6ADD6A0D2A0B0E0D64F0D7608C000E18
:100FC800636E6098609C6596000E0001996F000E34
:100FD800826F000E846F000E836F65B6F4D7010E22
:100FE800496E010E486E000E476E000E466E000EEA
:100FF800D26F000E0D6E0D50020D9C0EF324D96EAB
:10100800000EF420DA6E000EDE6E000EDD6E0D505E
:10101800020DA20EF324D96E000EF420DA6E000E33
:10102800DE6E000EDD6EBB0E0D24D96EDA6A000E80
:10103800DA22000EDF6EB80E0D24D96EDA6A000EC1
:10104800DA22000EDF6E0D2A020E0D64D4D7080EC8
:1010580000019C6F040E9D6F160E6A6E040E04014B
:10106800036F300E026F080E016F040E006F008FC1
:10107800000E586E000E0001A86F000EA96F000E3A
:10108800AA6F000EAB6F000ED16F000E516E1200EA
:10109800F2944150D76E40C0D6FF010E00016E6F2A
:1010A8005250D8A45206C64BC72BC75104E10A0EAA
:1010B800C65DD8A01200CC51CD11D8B403D0CC074E
:1010C800D8A0CD07532A0E0E536404D0000E536ED9
:1010D800010E6F6F624B632B635104E10A0E625D70
:1010E800D8A063D0000E636F000E626F31503210CB
:1010F800D8B403D03106D8A0320635503610D8B44B
:1011080003D03506D8A03606644B652B655104E13B
:101118000A0E645DD8A049D0000E656F000E646F9A
:10112800010E706F664B672B675104E10A0E665D0E
:10113800D8A03BD0000E676F000E666F010E716F6E
:10114800682B68C001F0026A000E046E050E036E7B
:1011580062EC11F001500210D8A403D0010E000176
:10116800736F68C001F0026A000E046E0A0E036E07
:1011780062EC11F001500210D8A403D0010E000156
:10118800746F3B0E0001686510D0000E686F010E89
:10119800726F692B3B0E696508D0000E696F010EEE
:1011A8006A27000E6B236C236D234DEC14F0000EA0
:1011B8000001C76F000EC66F12005104D8B460BAA0
:1011C80006D0000E656E64806488020E516E65B4A8
:1011D80064A403D06594DAEC13F060A202D0A4945E
:1011E800120065B064A006D0B5EC07F0A384040E25
:1011F800516E659065B864A802D00CEC14F065AC2B
:101208001AD064AC0ED0000E0E6E730E0D6E000E6A
:101218000F6E000E106E000E126E010E116E9AEC1B
:1012280011F0659C5EEC14F04B50D8A44B064B5063
:10123800D8B4B6EC0DF065BA64AA02D005EC13F088
:1012480065B264A20FD07F0E0E6E0D68000E0F6E91
:10125800000E106E000E126E010E116E9AEC11F057
:10126800000E676E040E516002D0A494120064A6AA
:1012780034D0000E1F6E65A630D061CF57F05730BE
:10128800E832E8320F0B4D6E659657B406D0B80EAB
:101298004D24D96EDA6A000E05D0BB0E4D24D96EE6
:1012A800DA6A000EDA220001DF704D50D8A403D0AC
:1012B80078EC0FF00ED0000E0E6E720E0D6E570EFB
:1012C8000F6E000E106E000E126E000E116E9AEC6C
:1012D80011F01F2A030E1F64CED7A4941200040134
:1012E80030511F0BE806D8A412003405D8B403D037
:1012F8003451D8A41200060E3119D8B420D02ED0FB
:101308005804D8A42BD03451D8A428D0A90E000151
:10131800966F7F0E976F000E9B6F090E0ED0C00E52
:10132800996F1CD03451D8A419D0130E0001966FB0
:101338007F0E976F000E9B6F3F0E9A6FF0D7335159
:10134800036E046A0450000AD8A408D00350210A86
:10135800D8B4D6D7030AD8B4E5D7010A040130397E
:10136800E832030BE806D8A412002DD06EEC14F076
:101378001200560E0001966F000E976F000E9B6FBD
:10138800010E9A6FC10E996F1200800E0001996FBD
:1013980033C456F056C001F004013251A0EC14F0E9
:1013A8001200550E0001966F000E976F000E9B6F8E
:1013B800010E9A6F810E996F1200800E0001996FCD
:1013C80032C455F012003151036E046A0450000A09
:1013D800D8A412000350010AD8B41200030AD8B4E2
:1013E800C8D7010AD8B4DDD70A0AD8B4BFD7030AC8
:1013F800D8B4CBD7010AD8A41200DFD737A085D03C
:1014080037A802D0378A01D0379A80AA02D0378805
:1014180001D0379837A229D037A402D0010E01D0C5
:10142800000E0001F86F37A802D0010E01D0000E9F
:10143800F81BD8A402D0378601D0379637AA02D035
:10144800010E01D0000EF86F37A802D0010E01D0AE
:10145800000EF81BD8B453D0000EF46F080EF36FCB
:10146800010EF56F84EC13F04AD037AA02D0010EB2
:1014780001D0000E0001F86F37A802D0010E01D08C
:10148800000EF81BD8B42BD037A402D0010E01D01F
:10149800000EF86F37A802D0010E01D0000EF81B1D
:1014A800D8A42DD0000EF46F080EF36F010EF56F5F
:1014B80084EC13F037B604D00001F86BF82B02D097
:1014C8000001F86BF847F847F8473750F819F70B59
:1014D800F819376E000E396E000E386E10D037A42A
:1014E80002D0010E01D0000EF86F37A802D0010E0D
:1014F80001D0000EF81BD8A4EDD7384A392A37A6F0
:1015080002D089961200898612008996120000017D
:10151800FB6F0001F351D8B407D0FB51020D9C0EAC
:10152800F324D96E000E06D0FB51020DA20EF3244F
:10153800D96E000EF420DA6EDECFFCF0DDCFFDF0C0
:10154800FC51FD11D8A405D0000EF36F000EF46F06
:10155800120020EE02F0FC51D926FD51DA22F4C027
:10156800DEFFF5C0DDFF20EE01F0FC51D926FD516C
:10157800DA22F6C0DFFFFCC0D9FFFDC0DAFF400E5B
:10158800DF16FCC0D9FFFDC0DAFF000EDB86FCC009
:10159800D9FFFDC0DAFF000EDB8EF351D8B418D0A6
:1015A800FB51020D9C0EF324D96E000EF420DA6E66
:1015B800DECFF7F0DDCFF8F0040EF719F96FF85128
:1015C800FA6FFB51020D9C0EF324D96E000E17D052
:1015D800FB51020DA20EF324D96E000EF420DA6E30
:1015E800DECFF7F0DDCFF8F0040EF719F96FF851F8
:1015F800FA6FFB51020DA20EF324D96E000EF420EF
:10160800DA6EF9C0DEFFFAC0DDFFFCC0F3F0FDC002
:10161800F4F01200096E0150D8B407D00950020D39
:101628009C0EF324D96E000E06D00950020DA20EAE
:10163800F324D96E000EF420DA6EDECF0AF0DDCF87
:101648000BF00A500B10D8A405D0000E016E000E46
:10165800026E120020EE02F00A50D9260B50DA2250
:1016680002C0DEFF03C0DDFF20EE01F00A50D926DC
:101678000B50DA2204C0DFFF0AC0D9FF0BC0DAFF23
:10168800400EDF160AC0D9FF0BC0DAFF000EDB865A
:101698000AC0D9FF0BC0DAFF000EDB8E0150D8B4A8
:1016A80018D00950020D9C0EF324D96E000EF420B8
:1016B800DA6EDECF05F0DDCF06F0040E0518076EF2
:1016C8000650086E0950020D9C0EF324D96E000EC8
:1016D80017D00950020DA20EF324D96E000EF42083
:1016E800DA6EDECF05F0DDCF06F0040E0518076EC2
:1016F8000650086E0950020DA20EF324D96E000E92
:10170800F420DA6E07C0DEFF08C0DDFF0AC001F072
:101718000BC002F012009CC0D9FF9DC0DAFF000187
:10172800000EDFBC010E026E040E9C199C6F9D51C9
:101738009D6F080E5118D8A40BD0040132517F0BAD
:10174800636E6350D8B402D0100E01D0040E516EEF
:101758004F04D8A43BD0000120EE02F09C51D926BA
:101768009D51DA22380EDE6E040EDD6E50EC0DF05F
:10177800020E5018D8A40DD09CC0D9FF9DC0DAFF26
:10178800040EDF6E9CC0D9FF9DC0DAFF000EDB8E11
:1017980012000250D8A40DD09CC0D9FF9DC0DAFF1A
:1017A800480EDF6E9CC0D9FF9DC0DAFF000EDB8EAD
:1017B80012009CC0D9FF9DC0DAFF080EDF6E9CC0E6
:1017C800D9FF9DC0DAFF000EDB8E1200000182AF48
:1017D80014D085518611D8B40ED020EE85F001D8EA
:1017E8000AD00500FA6EDE50FD6EDE50FE6EF8502F
:1017F800FF6EFA5012000001829F000E4F6E120019
:1018080004013039E832030B0009D8A4120042D091
:101818000001998F080E516E1200B7EC04F0120007
:10182800E6EC0CF01200580E0001966F000E976F50
:101838009981010E9A6F998F120078EC0EF01200C0
:1018480080EC03F01200F10E34250001966F976BBF
:10185800000E97239981010E9A6F998F120000014B
:10186800998FF10E04013425D96EDA6A000EDA2256
:1018780032C4DFFF1200000E0E6E020E0D6E000E57
:101888000F6E000E106E000E126E000E116E9AECA6
:1018980011F0120031511C6E1D6A1D50000AD8A4A7
:1018A80012001C50000AD8B4C8D7010AD8B4C8D747
:1018B800020AD8B4C5D7060AD8B4AAD7030AD8B436
:1018C800ACD7010AD8B4D7D70F0AD8B4ACD7010A15
:1018D800D8B4A6D7030AD8B4B6D7010AD8B4BFD7A4
:1018E800070A12006098000199BF38D082AF0BD068
:1018F800020E4F6E4650D8B429EC0FF0000E486E19
:10190800000E496E120020EE01F04250D9264350D5
:10191800DA22080EDF6E20EE02F04250D92643503C
:10192800DA22300EDE6E040EDD6E42C0D9FF43C0EF
:10193800DAFF0C0EDF6E42C0D9FF43C0DAFF000E9B
:10194800DB8E9CC0D9FF9DC0DAFF040EDF6E9CC001
:10195800D9FF9DC0DAFF000EDB8E1200040130AF04
:1019680010D0010E4F6E4750D8B429EC0FF0000E7E
:10197800486E000E496E4A50D8A41200B6EC0DF01D
:101988001200020E4F6E20EE01F04250D92643504D
:10199800DA22080EDF6E20EE02F04250D9264350BC
:1019A800DA22300EDE6E040EDD6E42C0D9FF43C06F
:1019B800DAFF040EDF6E42C0D9FF43C0DAFF000E23
:1019C800DB8ED5D70001998F6B0E016E0F0E026E5C
:1019D800000E046E000E036E000E066E020E056EFB
:1019E800EDEC05F0000E016E040E026E000E046EA2
:1019F800000E036E000E066E300E056EEDEC05F05F
:101A0800608C000E156EBB0E1524D96EDA6A000EB6
:101A1800DA22000EDF6EB80E1524D96EDA6A000ECF
:101A2800DA22000EDF6E152A020E1564ECD7F10ECD
:101A3800016E000E026E000E046E000E036E000EA4
:101A4800066E020E056EEDEC05F0609C080E0001B6
:101A58009C6F040E9D6F000E446E040E456E44C0CC
:101A680042F045C043F032C458F05850D8A403D0CF
:101A7800100E516E1200000E0E6E010E0D6E580EF5
:101A88000F6E000E106E000E126E010E116E9AECA3
:101A980011F0200E516E1200080E016E00019B51CC
:101AA80010E1080E9A5DD8B00CD09AC001F05050E1
:101AB800D8A402D0010E04D05004D8A402D0020E3B
:101AC800506E01509A5F000E9B5B20EE01F09C5116
:101AD800D9269D51DA2201C0DFFF380ECA6F040EE5
:101AE800CB6F99A11CD03AD096C0F6FF97C0F7FFEC
:101AF800F86ACAC0D9FFCBC0DAFF070EF76403D073
:101B08000800F55005D0F6CFE9FFF7CFEAFFEF5010
:101B1800DF6E0001964B972BCA4BCB2B0106015069
:101B2800D8B41200E1D796C0F6FF97C0F7FFF86A5D
:101B3800CAC0D9FFCBC0DAFF070EF76403D008008C
:101B4800F55005D0F6CFE9FFF7CFEAFFEF50DF6E8B
:101B58000001964B972BCA4BCB2B01060150D8B4EA
:101B68001200E1D74950D8A41200010E496E48501E
:101B7800D8A41200010E486E020E4F18D8A416D031
:101B8800000120EE01F09C51D9269D51DA22000E69
:101B9800DF6E9CC0D9FF9DC0DAFF480EDF6E9CC087
:101BA800D9FF9DC0DAFF000EDB8E12004F04D8A4C7
:101BB8001200000E4C6E20EE01F04450D92645501C
:101BC800DA22080EDF6E20EE02F04450D926455086
:101BD800DA22300EDE6E040EDD6E44C0D9FF45C039
:101BE800DAFF040EDF6E44C0D9FF45C0DAFF000EED
:101BF800DB8E010E4C6E20EE01F04250D926435088
:101C0800DA22080EDF6E20EE02F04250D926435049
:101C1800DA22300EDE6E040EDD6E42C0D9FF43C0FC
:101C2800DAFF800EDF6E12000001F56F010E000171
:101C3800F66F32D0000E81B2010EF66F53D0000E4F
:101C480081B0010EF66F4ED0000E81B4010EF66F12
:101C580049D0000E81B6010EF66F44D0000E81B84F
:101C6800010EF66F3FD0000E81BA010EF66F3AD022
:101C7800000E81BC010EF66F35D0000E81BE010E3C
:101C8800F66F30D0000E82B2010EF66F2BD0000E28
:101C980082B0010EF66F26D0F551F36FF46BF45154
:101CA800000AD8A41FD0F351000AD8B4C3D7010A38
:101CB800D8B4C5D7030AD8B4C7D7010AD8B4C9D786
:101CC800070AD8B4CBD7010AD8B4CDD7030AD8B4F9
:101CD800CFD7010AD8B4D1D70F0AD8B4D3D7010ABD
:101CE800D8B4D5D7F6511200000E0401386F000E93
:101CF800396F38D00001998F4E04D8A445D004011B
:101D0800388342D00001998F3FD00001998F040198
:101D180034BF0AD034510F0B016E0150020DA20ED0
:101D2800F324D96E000E09D034510F0B016E015007
:101D3800020D9C0EF324D96E000EF420DA6EDECF6D
:101D480003F0DDCF04F003C0D9FF04C0DAFFDFAE33
:101D58001BD003C0D9FF04C0DAFFDFA415D0010EE1
:101D6800386F12D030511F0B016E026A0250000A00
:101D7800D8A40AD00150000AD8B4BCD7010AD8B4F4
:101D8800C1D7030AD8B4C1D7000199AF1200380EE1
:101D9800966F040E976F9981020E9A6F12000001D8
:101DA800F56F070E966E9568000E8C6E000E8D6EA0
:101DB80021D08C90959012008C92959212008C9460
:101DC800959412008C96959612008C98959812000E
:101DD8008C9A959A12008C9C959C12008C9E959ECC
:101DE80012008D94969412008D92969212008D9006
:101DF800969012000001F551F36FF46BF451000A4C
:101E0800D8A41200F351000AD8B4D3D7010AD8B421
:101E1800D3D7030AD8B4D3D7010AD8B4D3D7070A7B
:101E2800D8B4D3D7010AD8B4D3D7030AD8B4D3D7F0
:101E3800010AD8B4D3D70F0AD8B4D3D7010AD8B473
:101E4800D3D7030AD8A41200D2D7000E476E000ECB
:101E5800466E020E4F18D8A41FD020EE01F0425053
:101E6800D9264350DA22080EDF6E20EE02F04250E7
:101E7800D9264350DA22380EDE6E040EDD6E42C0DB
:101E8800D9FF43C0DAFF480EDF6E42C0D9FF43C016
:101E9800DAFF000EDB8E120000019A510401365D54
:101EA80000019B5104013759D8B004D036C49AF0C8
:101EB80037C49BF050EC0DF0000120EE02F09C516D
:101EC800D9269D51DA22380EDE6E040EDD6E9CC0D6
:101ED800D9FF9DC0DAFF480EDF6E9CC0D9FF9DC0B8
:101EE800DAFF000EDB8E12002D0E4B6E57C01EF06F
:101EF800FD0E1E16D8A43BD057C01EF0D8901E3237
:101F08003F0E1E161E50040D000EF324446E040EE0
:101F1800F420456E44C042F045C043F0040E421818
:101F2800426E4350436E44C0D9FF45C0DAFFDF30EC
:101F3800E8320F0B0D0AD8A417D0300E016E040E2C
:101F4800026E20EE02F04450D9264550DA22DECF48
:101F580003F0DDCF04F0000E066E080E056EE3EC0C
:101F680012F09DEC10F01200F6EC11F01200575030
:101F7800FD0B040AD8A412008FEC0BF01200066EB9
:101F8800000E076E040E086E0150026E036AD890A8
:101F9800023603360650046E056AD89004360536B4
:101FA800D890043605360250042603500522D890EE
:101FB80004360536D89004360536045007260550F1
:101FC800082207C0D9FF08C0DAFFDF9E0150D8A455
:101FD80007D00650020DA20EF324D96E000E06D0CB
:101FE8000650020D9C0EF324D96E000EF420DA6E12
:101FF80007C0DEFF08C0DDFF07C0D9FF08C0DAFF51
:10200800DF9C20EE04F00750D9260850DA22DF8C36
:102018001200010E546431D03DC0F6F03CC0F5F01A
:102028000AD0F5C03DF0F6C03CF012003CC03DF0CF
:10203800F6C03CF012000001F651F36FF46BF45156
:10204800000AD8A41200F351E00AD8B4EFD7010A65
:10205800D8B4E7D7030AD8B4E9D7010AD8B4E6D781
:10206800070AD8B4E3D7010AD8B4E0D7030AD8B42A
:10207800DDD7010AD8A41200D9D75404D8A4120075
:102088003C500001F36FF46BF451000AD8A412001D
:10209800F351390AD8B412007E0AD8B41200140ACF
:1020A80012002EA012002EA208D02FC031F030C08E
:1020B80032F0D0EC14F02E922E9431503210D8B465
:1020C8002EB412D0CEEC14F02E30E832E8321F0BCA
:1020D8000009D8B409D02E84D89030300001F36FAD
:1020E8002F30356EF3C036F035503610D8A41200B4
:1020F8002EA41200CEEC14F02E30E832E8321F0B7A
:102108000009D8B41200010E0001F36F2E30F46FED
:10211800F433F4311F0BF46FF351F45FF437F437F1
:10212800F4372E50F419070BF4192E6E2E822E94C4
:102138001200000E506E000E4A6E000E476E000E22
:10214800466E000E4C6E000E4F6E9CC0D9FF9DC0AF
:10215800DAFF7F0EDF16040E00019C199C6F9D515B
:102168009D6F9CC0D9FF9DC0DAFF7F0EDF16040E5D
:102178009C199C6F9D519D6F42C0D9FF43C0DAFFE7
:102188007F0EDF16000E996F000E9B6F000E9A6F80
:10219800000E826F000E846F000E836F04EC0CF04B
:1021A800000E0E6E030E0D6E000E0F6E000E106EFA
:1021B800000E126E000E116E9AEC11F076EC0CF017
:1021C8001200D180040024EC12F004008984898272
:1021D80089808986F5EC13F0C0EC12F0CAEC14F093
:1021E800F28EF28C0400040000016F05D8A40BD015
:1021F8004DEC00F002EC0AF00DEC10F0FEEC01F0F2
:10220800000E00016F6F55EC10F000017005D8A4A6
:1022180002D0000E706F7105D8A402D0000E716F45
:102228007305D8A402D0000E736F7405D8A402D029
:10223800000E746F7205D8A4D6D7000E726FD3D76C
:102248002EC130F12FC131F10101D890303731372B
:10225800D8903037313730C1F3F031C1F4F0000E87
:102268000001F66F4B0EF56F39EC14F0F3C0F9F07E
:10227800F4C0FAF0000E0001FC6F640EFB6F50EC26
:1022880012F0F9C032F1FAC033F132C130F133C182
:1022980031F10101D89031333033D89031333033B4
:1022A8003051BE6E32C130F1030E3017303BF00EA4
:1022B8003017BD50CF0B3011BD6E1200000E066EE8
:1022C80002AE06D0016C021ED8B0022A010E066EBC
:1022D80004AE04D0036C041ED8B0042A03500410C2
:1022E800D8B418D0010E056E04D0D8900336043641
:1022F800052A04AEFAD70350015C04500258D8A04E
:1023080004D00350015E0450025AD89004320332BC
:10231800052EF1D70650D8B404D0016C021ED8B0EF
:10232800022A01C001F002C002F0120006D0C8EC77
:1023380011F0120073EC09F012000DC013F00EC07A
:1023480014F01450000AD8B404D07F0AD8A412009C
:1023580018D01350010AD8B4EAD7030AD8B4120027
:10236800010AD8B4E7D7060AD8B41200770AD8B455
:102378001200010AD8B41200070AD8B41200010AE0
:1023880012001350FF0A1200000E00018F6F000E9A
:10239800906F040E936F000E946F010EBF6FF40ED2
:1023A800BE6F010E7A6F000E7B6F000E7C6F000E01
:1023B800756F000E796F000E786F1E0E096E010E94
:1023C800BEEC13F0000E016E400E026E050E036E99
:1023D800010E046E010E0EEC0BF001C091F002C06C
:1023E80092F01200020E4F18D8A403D086EC06F023
:1023F8001200000E4F6E4C50D8A41FD020EE01F0F2
:102408004250D9264350DA22080EDF6E20EE02F041
:102418004250D9264350DA22300EDE6E040EDD6EAD
:1024280042C0D9FF43C0DAFF0C0EDF6E42C0D9FFAD
:1024380043C0DAFF000EDB8E1200000E4C6E120055
:10244800CCEC14F026EC13F08AEC14F01EEC07F038
:102458007DEC14F0A9EC14F0A2EC13F0000E0001CE
:10246800636F000E626F000E656F000E646F000EE2
:10247800676F000E666F000E686F000E696F000EC2
:102488006A6F000E6B6F000E6C6F000E6D6F23ECA1
:1024980014F09DEC12F01200000E0001FF6F000E08
:1024A800FE6FFB51FC11D8B41CD0010EFD6F04D097
:1024B800D890FB37FC37FD2BFCAFFAD7D890FE3706
:1024C800FF37FB51F95DFC51FA59D8A005D0FB51F3
:1024D800F95FFC51FA5BFE81D890FC33FB33FD2F8A
:1024E800EDD7FEC0F9F0FFC0FAF0120005EE63F078
:1024F80011EEB8F0EE6AE550E150FCE1E250FAE185
:1025080001EE00F02E0EEE6AE806FDE100EE60F046
:10251800930EEE6AE806FDE100EE2EF02B0EEE6A51
:10252800E806FDE159905992000EF86E0001E5EFBA
:1025380010F0090EB86E900EAB6E240EAC6E670EDE
:10254800AF6E000EB06E000E0001F36F000EF46F58
:10255800BBEC14F0000E0001F36F000EF46FB6EC44
:1025680014F0000E0001F36F000EF46FC0EC14F0CD
:10257800000E0001D06F1200000E0001CF6F320E66
:10258800CE6F000E01012F6F320E2E6F24EC11F06A
:102598002E80CEEC14F0000E326E000E316E000E5E
:1025A800366E000E356E000E346E000E336E070E5A
:1025B8002E16000E306E000E2F6E2E92120003C0E3
:1025C80009F004C00AF001C007F002C008F010D0FA
:1025D80009C0D9FF0AC0DAFFDF500B6E094A0A2A80
:1025E80007C0D9FF08C0DAFF0BC0DFFF074A082A77
:1025F8000506D8A006060528EBE10628D8B412007F
:10260800E7D76AA01DD044C0D9FF45C0DAFF800EC5
:10261800DE18D8A414D09CC0D9FF9DC0DAFF840E60
:10262800DE18D8A40CD044C0D9FF45C0DAFF0C0E80
:10263800DF6E44C0D9FF45C0DAFF000EDB8E6A901A
:10264800659A1200070E8D6E8C680F0E896E000E4B
:102658008A6E000E8B6E000E966EE00E926E936878
:10266800830E946E000E956E0F015E69040E5D6F09
:10267800000E5C6F070E5F6F0F0E5B6F000E856EAE
:10268800F18E1200050140A304D089920001D48381
:1026980003D089820001D493050140A104D0899018
:1026A8000001D48103D089800001D491050140A59F
:1026B80004D089940001D481120089840001D49146
:1026C8001200050140A304D089920001D48303D0ED
:1026D80089820001D493050140A104D089900001AA
:1026E800D48103D089800001D491050140A504D08C
:1026F80089940001D481120089840001D4911200C8
:10270800D8900001F431F66FF331356EF6C036F02B
:10271800F3C033F0F4C034F0F5C0F6F0FF0EF6273E
:10272800F647F647F6472E50F619070BF6192E6EA0
:10273800F3C02FF0F4C030F02E821200D59CFE0EAC
:10274800D76ED30ED66ED650D7CFF5F00001F66B04
:10275800F5C0F6F0F56BF511406EF651416EF29446
:10276800F28AA40EF36F290EF46FB1EC14F0910EF7
:10277800D56E12000C6E09A405D0000E016E0C5027
:10278800C3EC0FF009A205D0010E016E0C50C3EC8A
:102798000FF06A0E0C240A6E0B6A0F0E0B220AC089
:1027A800D9FF0BC0DAFF09C0DFFF1200000E0001DD
:1027B800D26F000E0E6E740E0D6E000E0F6E000EB0
:1027C800106E000E126E000E116E9AEC11F06092EF
:1027D800649401D0659465B4FDD7000E0001D16FF3
:1027E8001200379237803786378480AA02D037881C
:1027F80001D03798000E3B6E000E3A6E37A802D013
:10280800378A01D0379A000E396E000E386E1200E2
:10281800648465986082010E0001D26F000ED16F4A
:10282800000E0E6E750E0D6E000E0F6E000E106E01
:10283800000E126E000E116E9AEC11F0120051503B
:10284800D8A41200000E606E000E646E160E626E42
:102858009F0E666E7B0E646EA584A38401D060868D
:1028680060A6FDD7010E516E12000001F351F50369
:10287800F3CFF7F0F4CFF8F0F351F603F350F8275D
:10288800F451F503F350F827F7C0F3F0F8C0F4F06B
:1028980012000001C851C911D8B4120001D81200A1
:1028A8000500FA6EC851FD6EC951FE6EF850FF6EF4
:1028B800FA501200010E0001A827000EA923AA232E
:1028C800AB23D251D8A41200D12BD151D8A41200D5
:1028D800D1691200380E00017F6F040E806F000E60
:1028E800846F080E836F8A0E856F290E866F828F1C
:1028F80012001C0EBD6E000EB66E800EB76E010E75
:10290800B96E000EBF6E250EBE6E1200040ED36E99
:10291800140ED26E000E9B6E000EB56ED2BE120063
:10292800FDD7070E966E95688C68070E8D6E000EA3
:10293800966E000E956E1200026E0250D8A4120018
:1029480001C0BEF00001BF6B1200BB0EBB6E000ED3
:10295800BC6E9E92060EBA6E1200F3C0C8F0F4C0A8
:10296800C9F01200F3C0C2F0F4C0C3F01200F3C003
:10297800C4F0F4C0C5F01200F3C0C0F0F4C0C1F058
:10298800120038C440F565EC13F01200D58E120021
:0E299800D09E1200BA941200BA8412001200EF
:107E20000043271333374F623153484226120F362F
:107E3000516330544741250C0E1050582F55464081
:107E400024180D11E45B5E56453F231C0B05655A53
:107E50005D57443E22170A19E7595C614B3D2115D5
:107E60000906E60000604A3C2008071B2C52005F10
:107E7000493B1F1A161DE200004E2A3A1E140464E4
:107E8000E3E5284D2E29352B39E1E038344C2D43DC
:107E9000271333374F623153484226120F3651634E
:107EA00030544741250C0E1050582F554640241889
:107EB0000D11E45B5E56453F231C0B05655A5D576B
:107EC000443E22170A19E7595C614B3D211509060A
:107ED000E60000604A3C2008071B2C52005F493B2B
:107EE0001F1A161DE200004E2A3A1E140464E3E530
:107EF000284D2E29352B39E1E038344C2DFB7FCB32
:107F00007F527FEF7FB97FA77F00FF0001FF000155
:107F1000007E7F05010906A101050719E029E71583
:107F20000025017501950881029501750881039569
:107F3000057501050819012905910295017503913F
:107F40000395067508150025650507190029658143
:107F500000C02C0355005300420020004B00650078
:107F6000790062006F0061007200640020004B0025
:107F70002D00540072006F006E006900630009025A
:107F80002900010100C032090400000103010100C1
:107F9000092111010001223F0007058103080001AA
:107FA0000705010308000112034B00650079006218
:107FB000006F0061007200640012034B00650079DD
:107FC0000062006F0061007200640012034B002D1C
:107FD00000540072006F006E00690063001201100F
:107FE0000100000008882C01030301010200010CBC
:107FF00003560032002E0032003900040309040049
:020000040020DA
:08000000FFFFFFFFFFFFFFFF00
:020000040030CA
:0E00000022225F22FFD385FF00C00FE00F40D9
:00000001FF
